{
  "contractName": "MultiSigWallet",
  "abi": [
    {
      "inputs": [
        {
          "internalType": "address[]",
          "name": "_owners",
          "type": "address[]"
        },
        {
          "internalType": "uint256",
          "name": "_numConfirmationsRequired",
          "type": "uint256"
        }
      ],
      "stateMutability": "nonpayable",
      "type": "constructor"
    },
    {
      "anonymous": false,
      "inputs": [
        {
          "indexed": true,
          "internalType": "address",
          "name": "owner",
          "type": "address"
        },
        {
          "indexed": true,
          "internalType": "uint256",
          "name": "txIndex",
          "type": "uint256"
        }
      ],
      "name": "ConfirmTransaction",
      "type": "event"
    },
    {
      "anonymous": false,
      "inputs": [
        {
          "indexed": true,
          "internalType": "address",
          "name": "owner",
          "type": "address"
        },
        {
          "indexed": true,
          "internalType": "uint256",
          "name": "txIndex",
          "type": "uint256"
        },
        {
          "indexed": false,
          "internalType": "bytes",
          "name": "data",
          "type": "bytes"
        }
      ],
      "name": "DeleteTransaction",
      "type": "event"
    },
    {
      "anonymous": false,
      "inputs": [
        {
          "indexed": true,
          "internalType": "address",
          "name": "sender",
          "type": "address"
        },
        {
          "indexed": false,
          "internalType": "uint256",
          "name": "amount",
          "type": "uint256"
        },
        {
          "indexed": false,
          "internalType": "uint256",
          "name": "balance",
          "type": "uint256"
        }
      ],
      "name": "Deposit",
      "type": "event"
    },
    {
      "anonymous": false,
      "inputs": [
        {
          "indexed": true,
          "internalType": "address",
          "name": "owner",
          "type": "address"
        },
        {
          "indexed": true,
          "internalType": "uint256",
          "name": "txIndex",
          "type": "uint256"
        },
        {
          "indexed": true,
          "internalType": "address",
          "name": "to",
          "type": "address"
        },
        {
          "indexed": false,
          "internalType": "uint256",
          "name": "value",
          "type": "uint256"
        }
      ],
      "name": "EditTransaction",
      "type": "event"
    },
    {
      "anonymous": false,
      "inputs": [
        {
          "indexed": true,
          "internalType": "address",
          "name": "owner",
          "type": "address"
        },
        {
          "indexed": true,
          "internalType": "uint256",
          "name": "txIndex",
          "type": "uint256"
        }
      ],
      "name": "ExecuteTransaction",
      "type": "event"
    },
    {
      "anonymous": false,
      "inputs": [
        {
          "indexed": true,
          "internalType": "address",
          "name": "owner",
          "type": "address"
        },
        {
          "indexed": true,
          "internalType": "uint256",
          "name": "txIndex",
          "type": "uint256"
        }
      ],
      "name": "RevokeConfirmation",
      "type": "event"
    },
    {
      "anonymous": false,
      "inputs": [
        {
          "indexed": true,
          "internalType": "address",
          "name": "owner",
          "type": "address"
        },
        {
          "indexed": true,
          "internalType": "uint256",
          "name": "txIndex",
          "type": "uint256"
        },
        {
          "indexed": true,
          "internalType": "address",
          "name": "to",
          "type": "address"
        },
        {
          "indexed": false,
          "internalType": "uint256",
          "name": "value",
          "type": "uint256"
        },
        {
          "indexed": false,
          "internalType": "bytes",
          "name": "data",
          "type": "bytes"
        }
      ],
      "name": "SubmitTransaction",
      "type": "event"
    },
    {
      "inputs": [
        {
          "internalType": "address",
          "name": "",
          "type": "address"
        }
      ],
      "name": "isOwner",
      "outputs": [
        {
          "internalType": "bool",
          "name": "",
          "type": "bool"
        }
      ],
      "stateMutability": "view",
      "type": "function"
    },
    {
      "inputs": [],
      "name": "numConfirmationsRequired",
      "outputs": [
        {
          "internalType": "uint256",
          "name": "",
          "type": "uint256"
        }
      ],
      "stateMutability": "view",
      "type": "function"
    },
    {
      "inputs": [
        {
          "internalType": "uint256",
          "name": "",
          "type": "uint256"
        }
      ],
      "name": "owners",
      "outputs": [
        {
          "internalType": "address",
          "name": "",
          "type": "address"
        }
      ],
      "stateMutability": "view",
      "type": "function"
    },
    {
      "inputs": [
        {
          "internalType": "uint256",
          "name": "",
          "type": "uint256"
        }
      ],
      "name": "transactions",
      "outputs": [
        {
          "internalType": "address",
          "name": "to",
          "type": "address"
        },
        {
          "internalType": "uint256",
          "name": "value",
          "type": "uint256"
        },
        {
          "internalType": "bytes",
          "name": "data",
          "type": "bytes"
        },
        {
          "internalType": "bool",
          "name": "executed",
          "type": "bool"
        },
        {
          "internalType": "uint256",
          "name": "numConfirmations",
          "type": "uint256"
        }
      ],
      "stateMutability": "view",
      "type": "function"
    },
    {
      "stateMutability": "payable",
      "type": "receive"
    },
    {
      "inputs": [],
      "name": "deposit",
      "outputs": [],
      "stateMutability": "payable",
      "type": "function"
    },
    {
      "inputs": [
        {
          "internalType": "address",
          "name": "_to",
          "type": "address"
        },
        {
          "internalType": "uint256",
          "name": "_value",
          "type": "uint256"
        },
        {
          "internalType": "bytes",
          "name": "_data",
          "type": "bytes"
        }
      ],
      "name": "submitTransaction",
      "outputs": [],
      "stateMutability": "nonpayable",
      "type": "function"
    },
    {
      "inputs": [],
      "name": "getTransactionCount",
      "outputs": [
        {
          "internalType": "uint256",
          "name": "",
          "type": "uint256"
        }
      ],
      "stateMutability": "view",
      "type": "function"
    },
    {
      "inputs": [
        {
          "internalType": "uint256",
          "name": "_txIndex",
          "type": "uint256"
        }
      ],
      "name": "getTransaction",
      "outputs": [
        {
          "internalType": "address",
          "name": "to",
          "type": "address"
        },
        {
          "internalType": "uint256",
          "name": "value",
          "type": "uint256"
        },
        {
          "internalType": "bytes",
          "name": "data",
          "type": "bytes"
        },
        {
          "internalType": "bool",
          "name": "executed",
          "type": "bool"
        },
        {
          "internalType": "uint256",
          "name": "numConfirmations",
          "type": "uint256"
        }
      ],
      "stateMutability": "view",
      "type": "function"
    },
    {
      "inputs": [
        {
          "internalType": "uint256",
          "name": "_txIndex",
          "type": "uint256"
        },
        {
          "internalType": "address",
          "name": "_owner",
          "type": "address"
        }
      ],
      "name": "isConfirmed",
      "outputs": [
        {
          "internalType": "bool",
          "name": "",
          "type": "bool"
        }
      ],
      "stateMutability": "view",
      "type": "function"
    },
    {
      "inputs": [],
      "name": "getBalance",
      "outputs": [
        {
          "internalType": "uint256",
          "name": "",
          "type": "uint256"
        }
      ],
      "stateMutability": "view",
      "type": "function"
    },
    {
      "inputs": [
        {
          "internalType": "uint256",
          "name": "_txIndex",
          "type": "uint256"
        },
        {
          "internalType": "address",
          "name": "_to",
          "type": "address"
        },
        {
          "internalType": "uint256",
          "name": "_value",
          "type": "uint256"
        }
      ],
      "name": "editTransaction",
      "outputs": [],
      "stateMutability": "nonpayable",
      "type": "function"
    },
    {
      "inputs": [
        {
          "internalType": "uint256",
          "name": "_txIndex",
          "type": "uint256"
        }
      ],
      "name": "confirmTransaction",
      "outputs": [],
      "stateMutability": "nonpayable",
      "type": "function"
    },
    {
      "inputs": [
        {
          "internalType": "uint256",
          "name": "_txIndex",
          "type": "uint256"
        }
      ],
      "name": "executeTransaction",
      "outputs": [],
      "stateMutability": "nonpayable",
      "type": "function"
    },
    {
      "inputs": [
        {
          "internalType": "uint256",
          "name": "_txIndex",
          "type": "uint256"
        }
      ],
      "name": "revokeConfirmation",
      "outputs": [],
      "stateMutability": "nonpayable",
      "type": "function"
    },
    {
      "inputs": [
        {
          "internalType": "uint256",
          "name": "_txIndex",
          "type": "uint256"
        },
        {
          "internalType": "bytes",
          "name": "_data",
          "type": "bytes"
        }
      ],
      "name": "deleteTransaction",
      "outputs": [],
      "stateMutability": "nonpayable",
      "type": "function"
    }
  ],
  "bytecode": "0x60806040523480156200001157600080fd5b50604051620027bd380380620027bd833981810160405260408110156200003757600080fd5b81019080805160405193929190846401000000008211156200005857600080fd5b838201915060208201858111156200006f57600080fd5b82518660208202830111640100000000821117156200008d57600080fd5b8083526020830192505050908051906020019060200280838360005b83811015620000c6578082015181840152602081019050620000a9565b5050505090500160405260200180519060200190929190505050600082511162000158576040517f08c379a000000000000000000000000000000000000000000000000000000000815260040180806020018281038252600f8152602001807f6f776e657273207265717569726564000000000000000000000000000000000081525060200191505060405180910390fd5b6000811180156200016a575081518111155b620001c1576040517f08c379a0000000000000000000000000000000000000000000000000000000008152600401808060200182810382526028815260200180620027956028913960400191505060405180910390fd5b60005b825181101562000415576000838281518110620001dd57fe5b60200260200101519050600073ffffffffffffffffffffffffffffffffffffffff168173ffffffffffffffffffffffffffffffffffffffff1614156200028b576040517f08c379a000000000000000000000000000000000000000000000000000000000815260040180806020018281038252600d8152602001807f696e76616c6964206f776e65720000000000000000000000000000000000000081525060200191505060405180910390fd5b600160008273ffffffffffffffffffffffffffffffffffffffff1673ffffffffffffffffffffffffffffffffffffffff16815260200190815260200160002060009054906101000a900460ff16156200034c576040517f08c379a00000000000000000000000000000000000000000000000000000000081526004018080602001828103825260108152602001807f6f776e6572206e6f7420756e697175650000000000000000000000000000000081525060200191505060405180910390fd5b60018060008373ffffffffffffffffffffffffffffffffffffffff1673ffffffffffffffffffffffffffffffffffffffff16815260200190815260200160002060006101000a81548160ff0219169083151502179055506000819080600181540180825580915050600190039060005260206000200160009091909190916101000a81548173ffffffffffffffffffffffffffffffffffffffff021916908373ffffffffffffffffffffffffffffffffffffffff160217905550508080600101915050620001c4565b50806002819055505050612366806200042f6000396000f3fe608060405260043610610109576000357c01000000000000000000000000000000000000000000000000000000009004806346265f5e116100a7578063c642747411610076578063c642747414610692578063d0549b8514610784578063d0e30db0146107af578063ee22610b146107b95761017d565b806346265f5e1461049957806380f59a65146104fe5780639ace38c21461056f578063c01a8c84146106575761017d565b806320ea8d86116100e357806320ea8d86146102e45780632e7700f01461031f5780632f54bf6e1461034a57806333ea3dc8146103b15761017d565b8063025e7c271461018257806312065fe0146101e75780631e6017e8146102125761017d565b3661017d573373ffffffffffffffffffffffffffffffffffffffff167f90890809c654f11d6e72a28fa60149770a0d11ec6c92319d6ceb2bb0a4ea1a15343073ffffffffffffffffffffffffffffffffffffffff1631604051808381526020018281526020019250505060405180910390a2005b600080fd5b34801561018e57600080fd5b506101bb600480360360208110156101a557600080fd5b81019080803590602001909291905050506107f4565b604051808273ffffffffffffffffffffffffffffffffffffffff16815260200191505060405180910390f35b3480156101f357600080fd5b506101fc610830565b6040518082815260200191505060405180910390f35b34801561021e57600080fd5b506102e26004803603604081101561023557600080fd5b81019080803590602001909291908035906020019064010000000081111561025c57600080fd5b82018360208201111561026e57600080fd5b8035906020019184600183028401116401000000008311171561029057600080fd5b91908080601f016020809104026020016040519081016040528093929190818152602001838380828437600081840152601f19601f82011690508083019250505050505050919291929050505061084f565b005b3480156102f057600080fd5b5061031d6004803603602081101561030757600080fd5b8101908080359060200190929190505050610c3a565b005b34801561032b57600080fd5b50610334610fab565b6040518082815260200191505060405180910390f35b34801561035657600080fd5b506103996004803603602081101561036d57600080fd5b81019080803573ffffffffffffffffffffffffffffffffffffffff169060200190929190505050610fb8565b60405180821515815260200191505060405180910390f35b3480156103bd57600080fd5b506103ea600480360360208110156103d457600080fd5b8101908080359060200190929190505050610fd8565b604051808673ffffffffffffffffffffffffffffffffffffffff168152602001858152602001806020018415158152602001838152602001828103825285818151815260200191508051906020019080838360005b8381101561045a57808201518184015260208101905061043f565b50505050905090810190601f1680156104875780820380516001836020036101000a031916815260200191505b50965050505050505060405180910390f35b3480156104a557600080fd5b506104fc600480360360608110156104bc57600080fd5b8101908080359060200190929190803573ffffffffffffffffffffffffffffffffffffffff16906020019092919080359060200190929190505050611170565b005b34801561050a57600080fd5b506105576004803603604081101561052157600080fd5b8101908080359060200190929190803573ffffffffffffffffffffffffffffffffffffffff169060200190929190505050611501565b60405180821515815260200191505060405180910390f35b34801561057b57600080fd5b506105a86004803603602081101561059257600080fd5b8101908080359060200190929190505050611579565b604051808673ffffffffffffffffffffffffffffffffffffffff168152602001858152602001806020018415158152602001838152602001828103825285818151815260200191508051906020019080838360005b838110156106185780820151818401526020810190506105fd565b50505050905090810190601f1680156106455780820380516001836020036101000a031916815260200191505b50965050505050505060405180910390f35b34801561066357600080fd5b506106906004803603602081101561067a57600080fd5b8101908080359060200190929190505050611681565b005b34801561069e57600080fd5b50610782600480360360608110156106b557600080fd5b81019080803573ffffffffffffffffffffffffffffffffffffffff16906020019092919080359060200190929190803590602001906401000000008111156106fc57600080fd5b82018360208201111561070e57600080fd5b8035906020019184600183028401116401000000008311171561073057600080fd5b91908080601f016020809104026020016040519081016040528093929190818152602001838380828437600081840152601f19601f820116905080830192505050505050509192919290505050611af2565b005b34801561079057600080fd5b50610799611d9a565b6040518082815260200191505060405180910390f35b6107b7611da0565b005b3480156107c557600080fd5b506107f2600480360360208110156107dc57600080fd5b8101908080359060200190929190505050611e0f565b005b6000818154811061080157fe5b906000526020600020016000915054906101000a900473ffffffffffffffffffffffffffffffffffffffff1681565b60003073ffffffffffffffffffffffffffffffffffffffff1631905090565b600160003373ffffffffffffffffffffffffffffffffffffffff1673ffffffffffffffffffffffffffffffffffffffff16815260200190815260200160002060009054906101000a900460ff1661090e576040517f08c379a00000000000000000000000000000000000000000000000000000000081526004018080602001828103825260098152602001807f6e6f74206f776e6572000000000000000000000000000000000000000000000081525060200191505060405180910390fd5b816003805490508110610989576040517f08c379a00000000000000000000000000000000000000000000000000000000081526004018080602001828103825260118152602001807f747820646f6573206e6f7420657869737400000000000000000000000000000081525060200191505060405180910390fd5b826003818154811061099757fe5b906000526020600020906006020160030160009054906101000a900460ff1615610a29576040517f08c379a00000000000000000000000000000000000000000000000000000000081526004018080602001828103825260138152602001807f747820616c72656164792065786563757465640000000000000000000000000081525060200191505060405180910390fd5b8360038181548110610a3757fe5b906000526020600020906006020160040160003373ffffffffffffffffffffffffffffffffffffffff1673ffffffffffffffffffffffffffffffffffffffff16815260200190815260200160002060009054906101000a900460ff1615610b06576040517f08c379a00000000000000000000000000000000000000000000000000000000081526004018080602001828103825260148152602001807f747820616c726561647920636f6e6669726d656400000000000000000000000081525060200191505060405180910390fd5b60038581548110610b1357fe5b9060005260206000209060060201600080820160006101000a81549073ffffffffffffffffffffffffffffffffffffffff02191690556001820160009055600282016000610b61919061224b565b6003820160006101000a81549060ff021916905560058201600090555050843373ffffffffffffffffffffffffffffffffffffffff167fac62722b74a6f76637d8affac8f639d7aec6fb3ac20d8979eb16fc0a95a484bb866040518080602001828103825283818151815260200191508051906020019080838360005b83811015610bf9578082015181840152602081019050610bde565b50505050905090810190601f168015610c265780820380516001836020036101000a031916815260200191505b509250505060405180910390a35050505050565b600160003373ffffffffffffffffffffffffffffffffffffffff1673ffffffffffffffffffffffffffffffffffffffff16815260200190815260200160002060009054906101000a900460ff16610cf9576040517f08c379a00000000000000000000000000000000000000000000000000000000081526004018080602001828103825260098152602001807f6e6f74206f776e6572000000000000000000000000000000000000000000000081525060200191505060405180910390fd5b806003805490508110610d74576040517f08c379a00000000000000000000000000000000000000000000000000000000081526004018080602001828103825260118152602001807f747820646f6573206e6f7420657869737400000000000000000000000000000081525060200191505060405180910390fd5b8160038181548110610d8257fe5b906000526020600020906006020160030160009054906101000a900460ff1615610e14576040517f08c379a00000000000000000000000000000000000000000000000000000000081526004018080602001828103825260138152602001807f747820616c72656164792065786563757465640000000000000000000000000081525060200191505060405180910390fd5b600060038481548110610e2357fe5b906000526020600020906006020190508060040160003373ffffffffffffffffffffffffffffffffffffffff1673ffffffffffffffffffffffffffffffffffffffff16815260200190815260200160002060009054906101000a900460ff16610ef4576040517f08c379a00000000000000000000000000000000000000000000000000000000081526004018080602001828103825260108152602001807f7478206e6f7420636f6e6669726d65640000000000000000000000000000000081525060200191505060405180910390fd5b60008160040160003373ffffffffffffffffffffffffffffffffffffffff1673ffffffffffffffffffffffffffffffffffffffff16815260200190815260200160002060006101000a81548160ff02191690831515021790555060018160050160008282540392505081905550833373ffffffffffffffffffffffffffffffffffffffff167ff0dca620e2e81f7841d07bcc105e1704fb01475b278a9d4c236e1c62945edd5560405160405180910390a350505050565b6000600380549050905090565b60016020528060005260406000206000915054906101000a900460ff1681565b600080606060008085600380549050811061105b576040517f08c379a00000000000000000000000000000000000000000000000000000000081526004018080602001828103825260118152602001807f747820646f6573206e6f7420657869737400000000000000000000000000000081525060200191505060405180910390fd5b60006003888154811061106a57fe5b906000526020600020906006020190508060000160009054906101000a900473ffffffffffffffffffffffffffffffffffffffff168160010154826002018360030160009054906101000a900460ff168460050154828054600181600116156101000203166002900480601f0160208091040260200160405190810160405280929190818152602001828054600181600116156101000203166002900480156111545780601f1061112957610100808354040283529160200191611154565b820191906000526020600020905b81548152906001019060200180831161113757829003601f168201915b5050505050925096509650965096509650505091939590929450565b600160003373ffffffffffffffffffffffffffffffffffffffff1673ffffffffffffffffffffffffffffffffffffffff16815260200190815260200160002060009054906101000a900460ff1661122f576040517f08c379a00000000000000000000000000000000000000000000000000000000081526004018080602001828103825260098152602001807f6e6f74206f776e6572000000000000000000000000000000000000000000000081525060200191505060405180910390fd5b8260038054905081106112aa576040517f08c379a00000000000000000000000000000000000000000000000000000000081526004018080602001828103825260118152602001807f747820646f6573206e6f7420657869737400000000000000000000000000000081525060200191505060405180910390fd5b83600381815481106112b857fe5b906000526020600020906006020160030160009054906101000a900460ff161561134a576040517f08c379a00000000000000000000000000000000000000000000000000000000081526004018080602001828103825260138152602001807f747820616c72656164792065786563757465640000000000000000000000000081525060200191505060405180910390fd5b846003818154811061135857fe5b906000526020600020906006020160040160003373ffffffffffffffffffffffffffffffffffffffff1673ffffffffffffffffffffffffffffffffffffffff16815260200190815260200160002060009054906101000a900460ff1615611427576040517f08c379a00000000000000000000000000000000000000000000000000000000081526004018080602001828103825260148152602001807f747820616c726561647920636f6e6669726d656400000000000000000000000081525060200191505060405180910390fd5b60006003878154811061143657fe5b90600052602060002090600602019050858160000160006101000a81548173ffffffffffffffffffffffffffffffffffffffff021916908373ffffffffffffffffffffffffffffffffffffffff1602179055508481600101819055508573ffffffffffffffffffffffffffffffffffffffff16873373ffffffffffffffffffffffffffffffffffffffff167fce6a29a34a4668e5a686a780f5e30f6184ee2a804dbcdb5d37ffe8531f0f26aa886040518082815260200191505060405180910390a450505050505050565b6000806003848154811061151157fe5b906000526020600020906006020190508060040160008473ffffffffffffffffffffffffffffffffffffffff1673ffffffffffffffffffffffffffffffffffffffff16815260200190815260200160002060009054906101000a900460ff1691505092915050565b6003818154811061158657fe5b90600052602060002090600602016000915090508060000160009054906101000a900473ffffffffffffffffffffffffffffffffffffffff1690806001015490806002018054600181600116156101000203166002900480601f01602080910402602001604051908101604052809291908181526020018280546001816001161561010002031660029004801561165e5780601f106116335761010080835404028352916020019161165e565b820191906000526020600020905b81548152906001019060200180831161164157829003601f168201915b5050505050908060030160009054906101000a900460ff16908060050154905085565b600160003373ffffffffffffffffffffffffffffffffffffffff1673ffffffffffffffffffffffffffffffffffffffff16815260200190815260200160002060009054906101000a900460ff16611740576040517f08c379a00000000000000000000000000000000000000000000000000000000081526004018080602001828103825260098152602001807f6e6f74206f776e6572000000000000000000000000000000000000000000000081525060200191505060405180910390fd5b8060038054905081106117bb576040517f08c379a00000000000000000000000000000000000000000000000000000000081526004018080602001828103825260118152602001807f747820646f6573206e6f7420657869737400000000000000000000000000000081525060200191505060405180910390fd5b81600381815481106117c957fe5b906000526020600020906006020160030160009054906101000a900460ff161561185b576040517f08c379a00000000000000000000000000000000000000000000000000000000081526004018080602001828103825260138152602001807f747820616c72656164792065786563757465640000000000000000000000000081525060200191505060405180910390fd5b826003818154811061186957fe5b906000526020600020906006020160040160003373ffffffffffffffffffffffffffffffffffffffff1673ffffffffffffffffffffffffffffffffffffffff16815260200190815260200160002060009054906101000a900460ff1615611938576040517f08c379a00000000000000000000000000000000000000000000000000000000081526004018080602001828103825260148152602001807f747820616c726561647920636f6e6669726d656400000000000000000000000081525060200191505060405180910390fd5b60008073ffffffffffffffffffffffffffffffffffffffff166003868154811061195e57fe5b906000526020600020906006020160000160009054906101000a900473ffffffffffffffffffffffffffffffffffffffff1673ffffffffffffffffffffffffffffffffffffffff161415611a1a576040517f08c379a000000000000000000000000000000000000000000000000000000000815260040180806020018281038252600f8152602001807f496e76616c69642061646472657373000000000000000000000000000000000081525060200191505060405180910390fd5b600060038681548110611a2957fe5b9060005260206000209060060201905060018160040160003373ffffffffffffffffffffffffffffffffffffffff1673ffffffffffffffffffffffffffffffffffffffff16815260200190815260200160002060006101000a81548160ff02191690831515021790555060018160050160008282540192505081905550853373ffffffffffffffffffffffffffffffffffffffff167f5cbe105e36805f7820e291f799d5794ff948af2a5f664e580382defb6339004160405160405180910390a3505050505050565b600160003373ffffffffffffffffffffffffffffffffffffffff1673ffffffffffffffffffffffffffffffffffffffff16815260200190815260200160002060009054906101000a900460ff16611bb1576040517f08c379a00000000000000000000000000000000000000000000000000000000081526004018080602001828103825260098152602001807f6e6f74206f776e6572000000000000000000000000000000000000000000000081525060200191505060405180910390fd5b6000600380549050905060036040518060a001604052808673ffffffffffffffffffffffffffffffffffffffff1681526020018581526020018481526020016000151581526020016000815250908060018154018082558091505060019003906000526020600020906006020160009091909190915060008201518160000160006101000a81548173ffffffffffffffffffffffffffffffffffffffff021916908373ffffffffffffffffffffffffffffffffffffffff160217905550602082015181600101556040820151816002019080519060200190611c94929190612293565b5060608201518160030160006101000a81548160ff0219169083151502179055506080820151816005015550508373ffffffffffffffffffffffffffffffffffffffff16813373ffffffffffffffffffffffffffffffffffffffff167fd5a05bf70715ad82a09a756320284a1b54c9ff74cd0f8cce6219e79b563fe59d86866040518083815260200180602001828103825283818151815260200191508051906020019080838360005b83811015611d59578082015181840152602081019050611d3e565b50505050905090810190601f168015611d865780820380516001836020036101000a031916815260200191505b50935050505060405180910390a450505050565b60025481565b3373ffffffffffffffffffffffffffffffffffffffff167f90890809c654f11d6e72a28fa60149770a0d11ec6c92319d6ceb2bb0a4ea1a15343073ffffffffffffffffffffffffffffffffffffffff1631604051808381526020018281526020019250505060405180910390a2565b600160003373ffffffffffffffffffffffffffffffffffffffff1673ffffffffffffffffffffffffffffffffffffffff16815260200190815260200160002060009054906101000a900460ff16611ece576040517f08c379a00000000000000000000000000000000000000000000000000000000081526004018080602001828103825260098152602001807f6e6f74206f776e6572000000000000000000000000000000000000000000000081525060200191505060405180910390fd5b806003805490508110611f49576040517f08c379a00000000000000000000000000000000000000000000000000000000081526004018080602001828103825260118152602001807f747820646f6573206e6f7420657869737400000000000000000000000000000081525060200191505060405180910390fd5b8160038181548110611f5757fe5b906000526020600020906006020160030160009054906101000a900460ff1615611fe9576040517f08c379a00000000000000000000000000000000000000000000000000000000081526004018080602001828103825260138152602001807f747820616c72656164792065786563757465640000000000000000000000000081525060200191505060405180910390fd5b600060038481548110611ff857fe5b9060005260206000209060060201905060025481600501541015612084576040517f08c379a00000000000000000000000000000000000000000000000000000000081526004018080602001828103825260118152602001807f63616e6e6f74206578656375746520747800000000000000000000000000000081525060200191505060405180910390fd5b60018160030160006101000a81548160ff02191690831515021790555060008160000160009054906101000a900473ffffffffffffffffffffffffffffffffffffffff1673ffffffffffffffffffffffffffffffffffffffff1682600101548360020160405180828054600181600116156101000203166002900480156121425780601f10612120576101008083540402835291820191612142565b820191906000526020600020905b81548152906001019060200180831161212e575b505091505060006040518083038185875af1925050503d8060008114612184576040519150601f19603f3d011682016040523d82523d6000602084013e612189565b606091505b5050905080612200576040517f08c379a00000000000000000000000000000000000000000000000000000000081526004018080602001828103825260098152602001807f7478206661696c6564000000000000000000000000000000000000000000000081525060200191505060405180910390fd5b843373ffffffffffffffffffffffffffffffffffffffff167f5445f318f4f5fcfb66592e68e0cc5822aa15664039bd5f0ffde24c5a8142b1ac60405160405180910390a35050505050565b50805460018160011615610100020316600290046000825580601f106122715750612290565b601f01602090049060005260206000209081019061228f9190612313565b5b50565b828054600181600116156101000203166002900490600052602060002090601f016020900481019282601f106122d457805160ff1916838001178555612302565b82800160010185558215612302579182015b828111156123015782518255916020019190600101906122e6565b5b50905061230f9190612313565b5090565b5b8082111561232c576000816000905550600101612314565b509056fea26469706673582212207df7c72e38ad2db2104b322deb9ef43f07bde7802f67238c31cc0cf6e29d5bd864736f6c634300060c0033696e76616c6964206e756d626572206f6620726571756972656420636f6e6669726d6174696f6e73",
  "immutableReferences": {},
  "source": "// SPDX-License-Identifier: MIT\r\npragma solidity ^0.6.12;\r\n\r\ncontract MultiSigWallet {\r\n    // Events\r\n    event Deposit(address indexed sender, uint256 amount, uint256 balance);\r\n    event SubmitTransaction(\r\n        address indexed owner,\r\n        uint256 indexed txIndex,\r\n        address indexed to,\r\n        uint256 value,\r\n        bytes data\r\n    );\r\n    event ConfirmTransaction(address indexed owner, uint256 indexed txIndex);\r\n    event RevokeConfirmation(address indexed owner, uint256 indexed txIndex);\r\n    event ExecuteTransaction(address indexed owner, uint256 indexed txIndex);\r\n    event EditTransaction(\r\n        address indexed owner,\r\n        uint256 indexed txIndex,\r\n        address indexed to,\r\n        uint256 value\r\n    );\r\n    event DeleteTransaction(\r\n        address indexed owner,\r\n        uint256 indexed txIndex,\r\n        bytes data\r\n    );\r\n\r\n    // State variables\r\n    address[] public owners;\r\n    mapping(address => bool) public isOwner;\r\n    uint256 public numConfirmationsRequired;\r\n\r\n    // Struct holding transaction data\r\n    struct Transaction {\r\n        address to;\r\n        uint256 value;\r\n        bytes data;\r\n        bool executed;\r\n        mapping(address => bool) isConfirmed;\r\n        uint256 numConfirmations;\r\n    }\r\n\r\n    // Public array holding ALL transactions\r\n    Transaction[] public transactions;\r\n\r\n    // Modifiers\r\n    modifier onlyOwner() {\r\n        require(isOwner[msg.sender], \"not owner\");\r\n        _;\r\n    }\r\n\r\n    modifier txExists(uint256 _txIndex) {\r\n        require(_txIndex < transactions.length, \"tx does not exist\");\r\n        _;\r\n    }\r\n\r\n    modifier notExecuted(uint256 _txIndex) {\r\n        require(!transactions[_txIndex].executed, \"tx already executed\");\r\n        _;\r\n    }\r\n\r\n    modifier notConfirmed(uint256 _txIndex) {\r\n        require(\r\n            !transactions[_txIndex].isConfirmed[msg.sender],\r\n            \"tx already confirmed\"\r\n        );\r\n        _;\r\n    }\r\n\r\n    // setup initial information on contract deployment using contructor\r\n    constructor(address[] memory _owners, uint256 _numConfirmationsRequired)\r\n        public\r\n    {\r\n        require(_owners.length > 0, \"owners required\");\r\n        require(\r\n            _numConfirmationsRequired > 0 &&\r\n                _numConfirmationsRequired <= _owners.length,\r\n            \"invalid number of required confirmations\"\r\n        );\r\n\r\n        for (uint256 i = 0; i < _owners.length; i++) {\r\n            address owner = _owners[i];\r\n\r\n            require(owner != address(0), \"invalid owner\");\r\n            require(!isOwner[owner], \"owner not unique\");\r\n\r\n            isOwner[owner] = true;\r\n            owners.push(owner);\r\n        }\r\n\r\n        numConfirmationsRequired = _numConfirmationsRequired;\r\n    }\r\n\r\n    // Enable contract to receive money/eth\r\n    // For use outside of remix\r\n    receive() external payable {\r\n        emit Deposit(msg.sender, msg.value, address(this).balance);\r\n    }\r\n\r\n    // For internal remix use\r\n    function deposit() external payable {\r\n        emit Deposit(msg.sender, msg.value, address(this).balance);\r\n    }\r\n\r\n    // CREATE transaction data\r\n    // Create trx using struct schema, emit as event once created\r\n    function submitTransaction(\r\n        address _to,\r\n        uint256 _value,\r\n        bytes memory _data\r\n    ) public onlyOwner {\r\n        uint256 txIndex = transactions.length;\r\n\r\n        transactions.push(\r\n            Transaction({\r\n                to: _to,\r\n                value: _value,\r\n                data: _data,\r\n                executed: false,\r\n                numConfirmations: 0\r\n            })\r\n        );\r\n\r\n        emit SubmitTransaction(msg.sender, txIndex, _to, _value, _data);\r\n    }\r\n\r\n    // READ transaction data\r\n\r\n    function getTransactionCount() public view returns (uint256) {\r\n        return transactions.length;\r\n    }\r\n\r\n    function getTransaction(uint256 _txIndex)\r\n        public\r\n        view\r\n        txExists(_txIndex)\r\n        returns (\r\n            address to,\r\n            uint256 value,\r\n            bytes memory data,\r\n            bool executed,\r\n            uint256 numConfirmations\r\n        )\r\n    {\r\n        Transaction storage transaction = transactions[_txIndex];\r\n\r\n        return (\r\n            transaction.to,\r\n            transaction.value,\r\n            transaction.data,\r\n            transaction.executed,\r\n            transaction.numConfirmations\r\n        );\r\n    }\r\n\r\n    function isConfirmed(uint256 _txIndex, address _owner)\r\n        public\r\n        view\r\n        returns (bool)\r\n    {\r\n        Transaction storage transaction = transactions[_txIndex];\r\n\r\n        return transaction.isConfirmed[_owner];\r\n    }\r\n\r\n    function getBalance() public view returns (uint256) {\r\n        return address(this).balance;\r\n    }\r\n\r\n    // UPDATE\r\n    // Edit a transaction\r\n    function editTransaction(\r\n        uint256 _txIndex,\r\n        address _to,\r\n        uint256 _value\r\n    )\r\n        public\r\n        onlyOwner\r\n        txExists(_txIndex)\r\n        notExecuted(_txIndex)\r\n        notConfirmed(_txIndex)\r\n    {\r\n        Transaction storage transaction = transactions[_txIndex];\r\n\r\n        transaction.to = _to;\r\n        transaction.value = _value;\r\n\r\n        emit EditTransaction(msg.sender, _txIndex, _to, _value);\r\n    }\r\n\r\n    // Cofirm with 2 or all owners, emit event on confirmation\r\n    function confirmTransaction(uint256 _txIndex)\r\n        public\r\n        onlyOwner\r\n        txExists(_txIndex)\r\n        notExecuted(_txIndex)\r\n        notConfirmed(_txIndex)\r\n    {\r\n        address invalidAddress = 0x0000000000000000000000000000000000000000;\r\n\r\n        require(transactions[_txIndex].to != invalidAddress, \"Invalid address\");\r\n\r\n        Transaction storage transaction = transactions[_txIndex];\r\n\r\n        transaction.isConfirmed[msg.sender] = true;\r\n        transaction.numConfirmations += 1;\r\n\r\n        emit ConfirmTransaction(msg.sender, _txIndex);\r\n    }\r\n\r\n    // Execute if min confirmations met and emit event\r\n    function executeTransaction(uint256 _txIndex)\r\n        public\r\n        onlyOwner\r\n        txExists(_txIndex)\r\n        notExecuted(_txIndex)\r\n    {\r\n        Transaction storage transaction = transactions[_txIndex];\r\n\r\n        require(\r\n            transaction.numConfirmations >= numConfirmationsRequired,\r\n            \"cannot execute tx\"\r\n        );\r\n\r\n        transaction.executed = true;\r\n\r\n        (bool success, ) =\r\n            transaction.to.call{value: transaction.value}(transaction.data);\r\n\r\n        require(success, \"tx failed\");\r\n\r\n        emit ExecuteTransaction(msg.sender, _txIndex);\r\n    }\r\n\r\n    // remove confirmations\r\n    function revokeConfirmation(uint256 _txIndex)\r\n        public\r\n        onlyOwner\r\n        txExists(_txIndex)\r\n        notExecuted(_txIndex)\r\n    {\r\n        Transaction storage transaction = transactions[_txIndex];\r\n\r\n        require(transaction.isConfirmed[msg.sender], \"tx not confirmed\");\r\n\r\n        transaction.isConfirmed[msg.sender] = false;\r\n        transaction.numConfirmations -= 1;\r\n\r\n        emit RevokeConfirmation(msg.sender, _txIndex);\r\n    }\r\n\r\n    // DELETE\r\n    function deleteTransaction(uint256 _txIndex, bytes memory _data)\r\n        public\r\n        onlyOwner\r\n        txExists(_txIndex)\r\n        notExecuted(_txIndex)\r\n        notConfirmed(_txIndex)\r\n    {\r\n        delete transactions[_txIndex];\r\n\r\n        emit DeleteTransaction(msg.sender, _txIndex, _data);\r\n    }\r\n}\r\n",
  "sourcePath": "C:/Users/Kyle/Desktop/All docs needed2020.1.4/Smart-Contract-Programmer-Workspace/MultiSigWallet/my-multiSigWallet/contracts/MultiSigWallet.sol",
  "compiler": {
    "name": "solc",
    "version": "0.6.12+commit.27d51765.Emscripten.clang"
  },
  "schemaVersion": "3.3.4",
  "updatedAt": "2021-02-24T13:40:02.605Z",
  "devdoc": {
    "kind": "dev",
    "methods": {},
    "version": 1
  },
  "userdoc": {
    "kind": "user",
    "methods": {},
    "version": 1
  }
}