{
  "contractName": "MultiSigWallet",
  "abi": [
    {
      "inputs": [
        {
          "internalType": "address[]",
          "name": "_owners",
          "type": "address[]"
        },
        {
          "internalType": "uint256",
          "name": "_numConfirmationsRequired",
          "type": "uint256"
        }
      ],
      "stateMutability": "nonpayable",
      "type": "constructor"
    },
    {
      "anonymous": false,
      "inputs": [
        {
          "indexed": true,
          "internalType": "address",
          "name": "owner",
          "type": "address"
        },
        {
          "indexed": true,
          "internalType": "uint256",
          "name": "txIndex",
          "type": "uint256"
        }
      ],
      "name": "ConfirmTransaction",
      "type": "event"
    },
    {
      "anonymous": false,
      "inputs": [
        {
          "indexed": true,
          "internalType": "address",
          "name": "sender",
          "type": "address"
        },
        {
          "indexed": false,
          "internalType": "uint256",
          "name": "amount",
          "type": "uint256"
        },
        {
          "indexed": false,
          "internalType": "uint256",
          "name": "balance",
          "type": "uint256"
        }
      ],
      "name": "Deposit",
      "type": "event"
    },
    {
      "anonymous": false,
      "inputs": [
        {
          "indexed": true,
          "internalType": "address",
          "name": "owner",
          "type": "address"
        },
        {
          "indexed": true,
          "internalType": "uint256",
          "name": "txIndex",
          "type": "uint256"
        }
      ],
      "name": "ExecuteTransaction",
      "type": "event"
    },
    {
      "anonymous": false,
      "inputs": [
        {
          "indexed": true,
          "internalType": "address",
          "name": "owner",
          "type": "address"
        },
        {
          "indexed": true,
          "internalType": "uint256",
          "name": "txIndex",
          "type": "uint256"
        }
      ],
      "name": "RevokeConfirmation",
      "type": "event"
    },
    {
      "anonymous": false,
      "inputs": [
        {
          "indexed": true,
          "internalType": "address",
          "name": "owner",
          "type": "address"
        },
        {
          "indexed": true,
          "internalType": "uint256",
          "name": "txIndex",
          "type": "uint256"
        },
        {
          "indexed": true,
          "internalType": "address",
          "name": "to",
          "type": "address"
        },
        {
          "indexed": false,
          "internalType": "uint256",
          "name": "value",
          "type": "uint256"
        },
        {
          "indexed": false,
          "internalType": "bytes",
          "name": "data",
          "type": "bytes"
        }
      ],
      "name": "SubmitTransaction",
      "type": "event"
    },
    {
      "inputs": [
        {
          "internalType": "address",
          "name": "",
          "type": "address"
        }
      ],
      "name": "isOwner",
      "outputs": [
        {
          "internalType": "bool",
          "name": "",
          "type": "bool"
        }
      ],
      "stateMutability": "view",
      "type": "function"
    },
    {
      "inputs": [],
      "name": "numConfirmationsRequired",
      "outputs": [
        {
          "internalType": "uint256",
          "name": "",
          "type": "uint256"
        }
      ],
      "stateMutability": "view",
      "type": "function"
    },
    {
      "inputs": [
        {
          "internalType": "uint256",
          "name": "",
          "type": "uint256"
        }
      ],
      "name": "owners",
      "outputs": [
        {
          "internalType": "address",
          "name": "",
          "type": "address"
        }
      ],
      "stateMutability": "view",
      "type": "function"
    },
    {
      "inputs": [
        {
          "internalType": "uint256",
          "name": "",
          "type": "uint256"
        }
      ],
      "name": "transactions",
      "outputs": [
        {
          "internalType": "address",
          "name": "to",
          "type": "address"
        },
        {
          "internalType": "uint256",
          "name": "value",
          "type": "uint256"
        },
        {
          "internalType": "bytes",
          "name": "data",
          "type": "bytes"
        },
        {
          "internalType": "bool",
          "name": "executed",
          "type": "bool"
        },
        {
          "internalType": "uint256",
          "name": "numConfirmations",
          "type": "uint256"
        }
      ],
      "stateMutability": "view",
      "type": "function"
    },
    {
      "stateMutability": "payable",
      "type": "receive"
    },
    {
      "inputs": [],
      "name": "deposit",
      "outputs": [],
      "stateMutability": "payable",
      "type": "function"
    },
    {
      "inputs": [
        {
          "internalType": "address",
          "name": "_to",
          "type": "address"
        },
        {
          "internalType": "uint256",
          "name": "_value",
          "type": "uint256"
        },
        {
          "internalType": "bytes",
          "name": "_data",
          "type": "bytes"
        }
      ],
      "name": "submitTransaction",
      "outputs": [],
      "stateMutability": "nonpayable",
      "type": "function"
    },
    {
      "inputs": [
        {
          "internalType": "uint256",
          "name": "_txIndex",
          "type": "uint256"
        }
      ],
      "name": "confirmTransaction",
      "outputs": [],
      "stateMutability": "nonpayable",
      "type": "function"
    },
    {
      "inputs": [
        {
          "internalType": "uint256",
          "name": "_txIndex",
          "type": "uint256"
        }
      ],
      "name": "executeTransaction",
      "outputs": [],
      "stateMutability": "nonpayable",
      "type": "function"
    },
    {
      "inputs": [
        {
          "internalType": "uint256",
          "name": "_txIndex",
          "type": "uint256"
        }
      ],
      "name": "revokeConfirmation",
      "outputs": [],
      "stateMutability": "nonpayable",
      "type": "function"
    },
    {
      "inputs": [],
      "name": "getTransactionCount",
      "outputs": [
        {
          "internalType": "uint256",
          "name": "",
          "type": "uint256"
        }
      ],
      "stateMutability": "view",
      "type": "function"
    },
    {
      "inputs": [
        {
          "internalType": "uint256",
          "name": "_txIndex",
          "type": "uint256"
        }
      ],
      "name": "getTransaction",
      "outputs": [
        {
          "internalType": "address",
          "name": "to",
          "type": "address"
        },
        {
          "internalType": "uint256",
          "name": "value",
          "type": "uint256"
        },
        {
          "internalType": "bytes",
          "name": "data",
          "type": "bytes"
        },
        {
          "internalType": "bool",
          "name": "executed",
          "type": "bool"
        },
        {
          "internalType": "uint256",
          "name": "numConfirmations",
          "type": "uint256"
        }
      ],
      "stateMutability": "view",
      "type": "function"
    },
    {
      "inputs": [
        {
          "internalType": "uint256",
          "name": "_txIndex",
          "type": "uint256"
        },
        {
          "internalType": "address",
          "name": "_owner",
          "type": "address"
        }
      ],
      "name": "isConfirmed",
      "outputs": [
        {
          "internalType": "bool",
          "name": "",
          "type": "bool"
        }
      ],
      "stateMutability": "view",
      "type": "function"
    },
    {
      "inputs": [],
      "name": "getBalance",
      "outputs": [
        {
          "internalType": "uint256",
          "name": "",
          "type": "uint256"
        }
      ],
      "stateMutability": "view",
      "type": "function"
    }
  ],
  "bytecode": "0x60806040523480156200001157600080fd5b5060405162001cdb38038062001cdb833981810160405260408110156200003757600080fd5b81019080805160405193929190846401000000008211156200005857600080fd5b838201915060208201858111156200006f57600080fd5b82518660208202830111640100000000821117156200008d57600080fd5b8083526020830192505050908051906020019060200280838360005b83811015620000c6578082015181840152602081019050620000a9565b5050505090500160405260200180519060200190929190505050600082511162000158576040517f08c379a000000000000000000000000000000000000000000000000000000000815260040180806020018281038252600f8152602001807f6f776e657273207265717569726564000000000000000000000000000000000081525060200191505060405180910390fd5b6000811180156200016a575081518111155b620001c1576040517f08c379a000000000000000000000000000000000000000000000000000000000815260040180806020018281038252602881526020018062001cb36028913960400191505060405180910390fd5b60005b825181101562000415576000838281518110620001dd57fe5b60200260200101519050600073ffffffffffffffffffffffffffffffffffffffff168173ffffffffffffffffffffffffffffffffffffffff1614156200028b576040517f08c379a000000000000000000000000000000000000000000000000000000000815260040180806020018281038252600d8152602001807f696e76616c6964206f776e65720000000000000000000000000000000000000081525060200191505060405180910390fd5b600160008273ffffffffffffffffffffffffffffffffffffffff1673ffffffffffffffffffffffffffffffffffffffff16815260200190815260200160002060009054906101000a900460ff16156200034c576040517f08c379a00000000000000000000000000000000000000000000000000000000081526004018080602001828103825260108152602001807f6f776e6572206e6f7420756e697175650000000000000000000000000000000081525060200191505060405180910390fd5b60018060008373ffffffffffffffffffffffffffffffffffffffff1673ffffffffffffffffffffffffffffffffffffffff16815260200190815260200160002060006101000a81548160ff0219169083151502179055506000819080600181540180825580915050600190039060005260206000200160009091909190916101000a81548173ffffffffffffffffffffffffffffffffffffffff021916908373ffffffffffffffffffffffffffffffffffffffff160217905550508080600101915050620001c4565b50806002819055505050611884806200042f6000396000f3fe6080604052600436106100c65760003560e01c806380f59a651161007f578063c642747411610059578063c642747414610501578063d0549b85146105f3578063d0e30db01461061e578063ee22610b1461062857610123565b806380f59a651461036d5780639ace38c2146103de578063c01a8c84146104c657610123565b8063025e7c271461012857806312065fe01461018d57806320ea8d86146101b85780632e7700f0146101f35780632f54bf6e1461021e57806333ea3dc81461028557610123565b36610123573373ffffffffffffffffffffffffffffffffffffffff167f90890809c654f11d6e72a28fa60149770a0d11ec6c92319d6ceb2bb0a4ea1a153447604051808381526020018281526020019250505060405180910390a2005b600080fd5b34801561013457600080fd5b506101616004803603602081101561014b57600080fd5b8101908080359060200190929190505050610663565b604051808273ffffffffffffffffffffffffffffffffffffffff16815260200191505060405180910390f35b34801561019957600080fd5b506101a261069f565b6040518082815260200191505060405180910390f35b3480156101c457600080fd5b506101f1600480360360208110156101db57600080fd5b81019080803590602001909291905050506106a7565b005b3480156101ff57600080fd5b50610208610a18565b6040518082815260200191505060405180910390f35b34801561022a57600080fd5b5061026d6004803603602081101561024157600080fd5b81019080803573ffffffffffffffffffffffffffffffffffffffff169060200190929190505050610a25565b60405180821515815260200191505060405180910390f35b34801561029157600080fd5b506102be600480360360208110156102a857600080fd5b8101908080359060200190929190505050610a45565b604051808673ffffffffffffffffffffffffffffffffffffffff168152602001858152602001806020018415158152602001838152602001828103825285818151815260200191508051906020019080838360005b8381101561032e578082015181840152602081019050610313565b50505050905090810190601f16801561035b5780820380516001836020036101000a031916815260200191505b50965050505050505060405180910390f35b34801561037957600080fd5b506103c66004803603604081101561039057600080fd5b8101908080359060200190929190803573ffffffffffffffffffffffffffffffffffffffff169060200190929190505050610b61565b60405180821515815260200191505060405180910390f35b3480156103ea57600080fd5b506104176004803603602081101561040157600080fd5b8101908080359060200190929190505050610bd9565b604051808673ffffffffffffffffffffffffffffffffffffffff168152602001858152602001806020018415158152602001838152602001828103825285818151815260200191508051906020019080838360005b8381101561048757808201518184015260208101905061046c565b50505050905090810190601f1680156104b45780820380516001836020036101000a031916815260200191505b50965050505050505060405180910390f35b3480156104d257600080fd5b506104ff600480360360208110156104e957600080fd5b8101908080359060200190929190505050610ce1565b005b34801561050d57600080fd5b506105f16004803603606081101561052457600080fd5b81019080803573ffffffffffffffffffffffffffffffffffffffff169060200190929190803590602001909291908035906020019064010000000081111561056b57600080fd5b82018360208201111561057d57600080fd5b8035906020019184600183028401116401000000008311171561059f57600080fd5b91908080601f016020809104026020016040519081016040528093929190818152602001838380828437600081840152601f19601f82011690508083019250505050505050919291929050505061106f565b005b3480156105ff57600080fd5b50610608611317565b6040518082815260200191505060405180910390f35b61062661131d565b005b34801561063457600080fd5b506106616004803603602081101561064b57600080fd5b8101908080359060200190929190505050611375565b005b6000818154811061067057fe5b906000526020600020016000915054906101000a900473ffffffffffffffffffffffffffffffffffffffff1681565b600047905090565b600160003373ffffffffffffffffffffffffffffffffffffffff1673ffffffffffffffffffffffffffffffffffffffff16815260200190815260200160002060009054906101000a900460ff16610766576040517f08c379a00000000000000000000000000000000000000000000000000000000081526004018080602001828103825260098152602001807f6e6f74206f776e6572000000000000000000000000000000000000000000000081525060200191505060405180910390fd5b8060038054905081106107e1576040517f08c379a00000000000000000000000000000000000000000000000000000000081526004018080602001828103825260118152602001807f747820646f6573206e6f7420657869737400000000000000000000000000000081525060200191505060405180910390fd5b81600381815481106107ef57fe5b906000526020600020906006020160030160009054906101000a900460ff1615610881576040517f08c379a00000000000000000000000000000000000000000000000000000000081526004018080602001828103825260138152602001807f747820616c72656164792065786563757465640000000000000000000000000081525060200191505060405180910390fd5b60006003848154811061089057fe5b906000526020600020906006020190508060040160003373ffffffffffffffffffffffffffffffffffffffff1673ffffffffffffffffffffffffffffffffffffffff16815260200190815260200160002060009054906101000a900460ff16610961576040517f08c379a00000000000000000000000000000000000000000000000000000000081526004018080602001828103825260108152602001807f7478206e6f7420636f6e6669726d65640000000000000000000000000000000081525060200191505060405180910390fd5b60008160040160003373ffffffffffffffffffffffffffffffffffffffff1673ffffffffffffffffffffffffffffffffffffffff16815260200190815260200160002060006101000a81548160ff02191690831515021790555060018160050160008282540392505081905550833373ffffffffffffffffffffffffffffffffffffffff167ff0dca620e2e81f7841d07bcc105e1704fb01475b278a9d4c236e1c62945edd5560405160405180910390a350505050565b6000600380549050905090565b60016020528060005260406000206000915054906101000a900460ff1681565b6000806060600080600060038781548110610a5c57fe5b906000526020600020906006020190508060000160009054906101000a900473ffffffffffffffffffffffffffffffffffffffff168160010154826002018360030160009054906101000a900460ff168460050154828054600181600116156101000203166002900480601f016020809104026020016040519081016040528092919081815260200182805460018160011615610100020316600290048015610b465780601f10610b1b57610100808354040283529160200191610b46565b820191906000526020600020905b815481529060010190602001808311610b2957829003601f168201915b50505050509250955095509550955095505091939590929450565b60008060038481548110610b7157fe5b906000526020600020906006020190508060040160008473ffffffffffffffffffffffffffffffffffffffff1673ffffffffffffffffffffffffffffffffffffffff16815260200190815260200160002060009054906101000a900460ff1691505092915050565b60038181548110610be657fe5b90600052602060002090600602016000915090508060000160009054906101000a900473ffffffffffffffffffffffffffffffffffffffff1690806001015490806002018054600181600116156101000203166002900480601f016020809104026020016040519081016040528092919081815260200182805460018160011615610100020316600290048015610cbe5780601f10610c9357610100808354040283529160200191610cbe565b820191906000526020600020905b815481529060010190602001808311610ca157829003601f168201915b5050505050908060030160009054906101000a900460ff16908060050154905085565b600160003373ffffffffffffffffffffffffffffffffffffffff1673ffffffffffffffffffffffffffffffffffffffff16815260200190815260200160002060009054906101000a900460ff16610da0576040517f08c379a00000000000000000000000000000000000000000000000000000000081526004018080602001828103825260098152602001807f6e6f74206f776e6572000000000000000000000000000000000000000000000081525060200191505060405180910390fd5b806003805490508110610e1b576040517f08c379a00000000000000000000000000000000000000000000000000000000081526004018080602001828103825260118152602001807f747820646f6573206e6f7420657869737400000000000000000000000000000081525060200191505060405180910390fd5b8160038181548110610e2957fe5b906000526020600020906006020160030160009054906101000a900460ff1615610ebb576040517f08c379a00000000000000000000000000000000000000000000000000000000081526004018080602001828103825260138152602001807f747820616c72656164792065786563757465640000000000000000000000000081525060200191505060405180910390fd5b8260038181548110610ec957fe5b906000526020600020906006020160040160003373ffffffffffffffffffffffffffffffffffffffff1673ffffffffffffffffffffffffffffffffffffffff16815260200190815260200160002060009054906101000a900460ff1615610f98576040517f08c379a00000000000000000000000000000000000000000000000000000000081526004018080602001828103825260148152602001807f747820616c726561647920636f6e6669726d656400000000000000000000000081525060200191505060405180910390fd5b600060038581548110610fa757fe5b9060005260206000209060060201905060018160040160003373ffffffffffffffffffffffffffffffffffffffff1673ffffffffffffffffffffffffffffffffffffffff16815260200190815260200160002060006101000a81548160ff02191690831515021790555060018160050160008282540192505081905550843373ffffffffffffffffffffffffffffffffffffffff167f5cbe105e36805f7820e291f799d5794ff948af2a5f664e580382defb6339004160405160405180910390a35050505050565b600160003373ffffffffffffffffffffffffffffffffffffffff1673ffffffffffffffffffffffffffffffffffffffff16815260200190815260200160002060009054906101000a900460ff1661112e576040517f08c379a00000000000000000000000000000000000000000000000000000000081526004018080602001828103825260098152602001807f6e6f74206f776e6572000000000000000000000000000000000000000000000081525060200191505060405180910390fd5b6000600380549050905060036040518060a001604052808673ffffffffffffffffffffffffffffffffffffffff1681526020018581526020018481526020016000151581526020016000815250908060018154018082558091505060019003906000526020600020906006020160009091909190915060008201518160000160006101000a81548173ffffffffffffffffffffffffffffffffffffffff021916908373ffffffffffffffffffffffffffffffffffffffff1602179055506020820151816001015560408201518160020190805190602001906112119291906117b1565b5060608201518160030160006101000a81548160ff0219169083151502179055506080820151816005015550508373ffffffffffffffffffffffffffffffffffffffff16813373ffffffffffffffffffffffffffffffffffffffff167fd5a05bf70715ad82a09a756320284a1b54c9ff74cd0f8cce6219e79b563fe59d86866040518083815260200180602001828103825283818151815260200191508051906020019080838360005b838110156112d65780820151818401526020810190506112bb565b50505050905090810190601f1680156113035780820380516001836020036101000a031916815260200191505b50935050505060405180910390a450505050565b60025481565b3373ffffffffffffffffffffffffffffffffffffffff167f90890809c654f11d6e72a28fa60149770a0d11ec6c92319d6ceb2bb0a4ea1a153447604051808381526020018281526020019250505060405180910390a2565b600160003373ffffffffffffffffffffffffffffffffffffffff1673ffffffffffffffffffffffffffffffffffffffff16815260200190815260200160002060009054906101000a900460ff16611434576040517f08c379a00000000000000000000000000000000000000000000000000000000081526004018080602001828103825260098152602001807f6e6f74206f776e6572000000000000000000000000000000000000000000000081525060200191505060405180910390fd5b8060038054905081106114af576040517f08c379a00000000000000000000000000000000000000000000000000000000081526004018080602001828103825260118152602001807f747820646f6573206e6f7420657869737400000000000000000000000000000081525060200191505060405180910390fd5b81600381815481106114bd57fe5b906000526020600020906006020160030160009054906101000a900460ff161561154f576040517f08c379a00000000000000000000000000000000000000000000000000000000081526004018080602001828103825260138152602001807f747820616c72656164792065786563757465640000000000000000000000000081525060200191505060405180910390fd5b60006003848154811061155e57fe5b90600052602060002090600602019050600254816005015410156115ea576040517f08c379a00000000000000000000000000000000000000000000000000000000081526004018080602001828103825260118152602001807f63616e6e6f74206578656375746520747800000000000000000000000000000081525060200191505060405180910390fd5b60018160030160006101000a81548160ff02191690831515021790555060008160000160009054906101000a900473ffffffffffffffffffffffffffffffffffffffff1673ffffffffffffffffffffffffffffffffffffffff1682600101548360020160405180828054600181600116156101000203166002900480156116a85780601f106116865761010080835404028352918201916116a8565b820191906000526020600020905b815481529060010190602001808311611694575b505091505060006040518083038185875af1925050503d80600081146116ea576040519150601f19603f3d011682016040523d82523d6000602084013e6116ef565b606091505b5050905080611766576040517f08c379a00000000000000000000000000000000000000000000000000000000081526004018080602001828103825260098152602001807f7478206661696c6564000000000000000000000000000000000000000000000081525060200191505060405180910390fd5b843373ffffffffffffffffffffffffffffffffffffffff167f5445f318f4f5fcfb66592e68e0cc5822aa15664039bd5f0ffde24c5a8142b1ac60405160405180910390a35050505050565b828054600181600116156101000203166002900490600052602060002090601f016020900481019282601f106117f257805160ff1916838001178555611820565b82800160010185558215611820579182015b8281111561181f578251825591602001919060010190611804565b5b50905061182d9190611831565b5090565b5b8082111561184a576000816000905550600101611832565b509056fea2646970667358221220ac0acfb6036bf6651cfcfe1dedc289d324e82f0d9ea236c904cb90c3cb99212864736f6c634300060c0033696e76616c6964206e756d626572206f6620726571756972656420636f6e6669726d6174696f6e73",
  "immutableReferences": {},
  "source": "// SPDX-License-Identifier: GPL-3.0\r\npragma solidity ^0.6.12;\r\n\r\ncontract MultiSigWallet {\r\n    event Deposit(address indexed sender, uint256 amount, uint256 balance);\r\n    event SubmitTransaction(\r\n        address indexed owner,\r\n        uint256 indexed txIndex,\r\n        address indexed to,\r\n        uint256 value,\r\n        bytes data\r\n    );\r\n    event ConfirmTransaction(address indexed owner, uint256 indexed txIndex);\r\n    event RevokeConfirmation(address indexed owner, uint256 indexed txIndex);\r\n    event ExecuteTransaction(address indexed owner, uint256 indexed txIndex);\r\n\r\n    address[] public owners;\r\n    mapping(address => bool) public isOwner;\r\n    uint256 public numConfirmationsRequired;\r\n\r\n    struct Transaction {\r\n        address to;\r\n        uint256 value;\r\n        bytes data;\r\n        bool executed;\r\n        mapping(address => bool) isConfirmed;\r\n        uint256 numConfirmations;\r\n    }\r\n\r\n    Transaction[] public transactions;\r\n\r\n    constructor(address[] memory _owners, uint256 _numConfirmationsRequired)\r\n        public\r\n    {\r\n        require(_owners.length > 0, \"owners required\");\r\n        require(\r\n            _numConfirmationsRequired > 0 &&\r\n                _numConfirmationsRequired <= _owners.length,\r\n            \"invalid number of required confirmations\"\r\n        );\r\n\r\n        for (uint256 i = 0; i < _owners.length; i++) {\r\n            address owner = _owners[i];\r\n\r\n            require(owner != address(0), \"invalid owner\");\r\n            require(!isOwner[owner], \"owner not unique\");\r\n\r\n            isOwner[owner] = true;\r\n            owners.push(owner);\r\n        }\r\n\r\n        numConfirmationsRequired = _numConfirmationsRequired;\r\n    }\r\n\r\n    receive() external payable {\r\n        emit Deposit(msg.sender, msg.value, address(this).balance);\r\n    }\r\n\r\n    function deposit() external payable {\r\n        emit Deposit(msg.sender, msg.value, address(this).balance);\r\n    }\r\n\r\n    modifier onlyOwner() {\r\n        require(isOwner[msg.sender], \"not owner\");\r\n        _;\r\n    }\r\n\r\n    function submitTransaction(\r\n        address _to,\r\n        uint256 _value,\r\n        bytes memory _data\r\n    ) public onlyOwner {\r\n        uint256 txIndex = transactions.length;\r\n\r\n        transactions.push(\r\n            Transaction({\r\n                to: _to,\r\n                value: _value,\r\n                data: _data,\r\n                executed: false,\r\n                numConfirmations: 0\r\n            })\r\n        );\r\n\r\n        emit SubmitTransaction(msg.sender, txIndex, _to, _value, _data);\r\n    }\r\n\r\n    modifier txExists(uint256 _txIndex) {\r\n        require(_txIndex < transactions.length, \"tx does not exist\");\r\n        _;\r\n    }\r\n\r\n    modifier notExecuted(uint256 _txIndex) {\r\n        require(!transactions[_txIndex].executed, \"tx already executed\");\r\n        _;\r\n    }\r\n\r\n    modifier notConfirmed(uint256 _txIndex) {\r\n        require(\r\n            !transactions[_txIndex].isConfirmed[msg.sender],\r\n            \"tx already confirmed\"\r\n        );\r\n        _;\r\n    }\r\n\r\n    function confirmTransaction(uint256 _txIndex)\r\n        public\r\n        onlyOwner\r\n        txExists(_txIndex)\r\n        notExecuted(_txIndex)\r\n        notConfirmed(_txIndex)\r\n    {\r\n        Transaction storage transaction = transactions[_txIndex];\r\n\r\n        transaction.isConfirmed[msg.sender] = true;\r\n        transaction.numConfirmations += 1;\r\n\r\n        emit ConfirmTransaction(msg.sender, _txIndex);\r\n    }\r\n\r\n    function executeTransaction(uint256 _txIndex)\r\n        public\r\n        onlyOwner\r\n        txExists(_txIndex)\r\n        notExecuted(_txIndex)\r\n    {\r\n        Transaction storage transaction = transactions[_txIndex];\r\n\r\n        require(\r\n            transaction.numConfirmations >= numConfirmationsRequired,\r\n            \"cannot execute tx\"\r\n        );\r\n\r\n        transaction.executed = true;\r\n\r\n        (bool success, ) =\r\n            transaction.to.call{value: transaction.value}(transaction.data);\r\n\r\n        require(success, \"tx failed\");\r\n\r\n        emit ExecuteTransaction(msg.sender, _txIndex);\r\n    }\r\n\r\n    function revokeConfirmation(uint256 _txIndex)\r\n        public\r\n        onlyOwner\r\n        txExists(_txIndex)\r\n        notExecuted(_txIndex)\r\n    {\r\n        Transaction storage transaction = transactions[_txIndex];\r\n\r\n        require(transaction.isConfirmed[msg.sender], \"tx not confirmed\");\r\n\r\n        transaction.isConfirmed[msg.sender] = false;\r\n        transaction.numConfirmations -= 1;\r\n\r\n        emit RevokeConfirmation(msg.sender, _txIndex);\r\n    }\r\n\r\n    function getTransactionCount() public view returns (uint256) {\r\n        return transactions.length;\r\n    }\r\n\r\n    function getTransaction(uint256 _txIndex)\r\n        public\r\n        view\r\n        returns (\r\n            address to,\r\n            uint256 value,\r\n            bytes memory data,\r\n            bool executed,\r\n            uint256 numConfirmations\r\n        )\r\n    {\r\n        Transaction storage transaction = transactions[_txIndex];\r\n\r\n        return (\r\n            transaction.to,\r\n            transaction.value,\r\n            transaction.data,\r\n            transaction.executed,\r\n            transaction.numConfirmations\r\n        );\r\n    }\r\n\r\n    function isConfirmed(uint256 _txIndex, address _owner)\r\n        public\r\n        view\r\n        returns (bool)\r\n    {\r\n        Transaction storage transaction = transactions[_txIndex];\r\n\r\n        return transaction.isConfirmed[_owner];\r\n    }\r\n\r\n    function getBalance() public view returns (uint256) {\r\n        return address(this).balance;\r\n    }\r\n}\r\n",
  "sourcePath": "C:/Users/Kyle/Desktop/All docs needed2020.1.4/Smart-Contract-Programmer-Workspace/MultiSigWallet/my-multiSigWallet/contracts/MultiSigWallet.sol",
  "compiler": {
    "name": "solc",
    "version": "0.6.12+commit.27d51765.Emscripten.clang"
  },
  "schemaVersion": "3.3.4",
  "updatedAt": "2021-02-18T13:09:49.567Z",
  "devdoc": {
    "kind": "dev",
    "methods": {},
    "version": 1
  },
  "userdoc": {
    "kind": "user",
    "methods": {},
    "version": 1
  }
}